:020000040800F2
:10000000E80E00203902000835210008BD1700085D
:100010003121000805160008CD3900080000000055
:100020000000000000000000000000004B0200087B
:10003000A5160008000000004F020008552C00081B
:10004000530200085302000853020008530200083C
:10005000530200085302000853020008530200082C
:10006000530200085302000853020008530200081C
:10007000530200085302000853020008530200080C
:1000800053020008530200085302000853020008FC
:1000900053020008530200085302000853020008EC
:1000A00053020008530200085302000853020008DC
:1000B000D52C0008352D0008530200085302000813
:1000C00053020008530200085302000853020008BC
:1000D000530200088D3200083D330008F133000858
:1000E000530200085302000853020008530200089C
:1000F000530200085302000853020008530200088C
:10010000530200085302000853020008530200087B
:10011000530200085302000853020008530200086B
:10012000530200085302000853020008530200085B
:1001300000F002F800F070F80AA090E8000C824489
:100140008344AAF10107DA4501D100F065F8AFF266
:10015000090EBAE80F0013F0010F18BFFB1A43F0A5
:1001600001031847645C0000845C00000A444FF0FF
:10017000000C10F8013B13F0070408BF10F8014B06
:100180001D1108BF10F8015B641E05D010F8016B4B
:10019000641E01F8016BF9D113F0080F1EBF10F8AF
:1001A000014BAD1C0C1B09D16D1E58BF01F801CBD2
:1001B000FAD505E014F8016B01F8016B6D1EF9D555
:1001C0009142D6D37047000000230024002500266A
:1001D000103A28BF78C1FBD8520728BF30C148BFAA
:1001E0000B607047662905F02A85642900F0B48009
:1001F000752900F0B180732900F09B8400207047BE
:100200001FB500F0ADFC04000020002104F0F8FB55
:10021000E0601FBD10B510BD00F0A6FD1146FFF750
:10022000EFFF03F08BFD00F0C4FD03B4FFF7F2FF16
:1002300003BC00F005FE000009488047094800475C
:10024000FEE7FEE7FEE7FEE7FEE7FEE7FEE7FEE786
:10025000FEE7FEE704480549054A064B70470000E3
:10026000752C000831010008E8020020E80E00208B
:10027000E8060020E80600200FB4044910B503AAE0
:10028000029800F05BFC10BC5DF814FB2401002018
:100290000FB41CB5074B06AA7B446946009005982D
:1002A00000F01DFC0020694600F02CFC1CBC5DF831
:1002B00014FB00006908000070B5044685690068F9
:1002C000C10601D5302600E02026C00707D070BD4A
:1002D000D4E9012130469047206A401C20626D1EFF
:1002E000F6D570BD70B5044685690078C00707D1A2
:1002F00070BDD4E9012120209047206A401C206273
:100300006D1EF6D570BD70B50C460546012A05D0A8
:100310002878800600D5EA69002302E0012305E081
:100320005B1C934202D2E05C0028F9D1A869E61870
:10033000C01AA861286A184428622846FFF7BCFF43
:1003400004E0D5E9012114F8010B9047B442F8D339
:100350002846FFF7C7FF70BD2DE9F041064600248F
:1003600010687529314616A510D0AFF3008000281B
:1003700002DA404213A507E031688A0701D512A5C9
:1003800002E0490704D511A5012401E0AFF3008084
:1003900000210A2206F1240709E0B0FBF2FCB0FBC1
:1003A000F2F302FB1C00303078541846491C002838
:1003B000F3D123462A463046BDE8F04100F023B988
:1003C000000000002D0000002B00000020000000B5
:1003D0002DE9F05F894604464FF0000ADFF874B15A
:1003E000FB44C0F820A02046E1688847002874D06C
:1003F000252806D0D4E901219047206A401C2062BC
:10040000F1E700265F462046E16888472028054638
:1004100007DB312D05D2781910F8200C08B10643FE
:10042000F1E7B00701D526F00406C4F81CA00027A8
:10043000C4F818A02A2D09D0284603F0F7FA38B3DB
:1004400004EB8708303DC8F8185019E059F8041B30
:10045000204604EB87029161E1688847012F054639
:1004600018D1E069002820DA26F020061DE0D8F82F
:10047000180000EB800005EB40003038C8F8180089
:100480002046E1688847054603F0D0FA0028EED1FF
:10049000012F0AD02E2D08D12046E16888477F1C05
:1004A0000546022F46F02006C4DBA069002803DAC7
:1004B000404246F00106A061F00701D026F0100688
:1004C0006C2D0BD0682D09D04C2D39D06A2D35D02C
:1004D000742D35D07A2D33D016E038E0E1682F4600
:1004E00020468847B842054609D16C2F26D04FF4E4
:1004F0008060E168064320468847054604E06C2F8B
:100500001AD04FF4807006430DB3A5F141001928AD
:1005100002D8203546F400664A4629462046266021
:100520004E46FFF75FFE80B101280BD0F61D26F086
:10053000070000F1080956E74020E4E78020D8E7EB
:100540000020D6E706F104094DE7284652E7206A65
:10055000BDE8F09F3E5900004FF000020429C0F0B2
:10056000128010F0030C00F01B80CCF1040CBCF1E5
:10057000020F18BF00F8012BA8BF20F8022BA1EB37
:100580000C0100F00DB85FEAC17C24BF00F8012B1C
:1005900000F8012B48BF00F8012B70474FF0000214
:1005A00000B5134694469646203922BFA0E80C5069
:1005B000A0E80C50B1F12001BFF4F7AF090728BF44
:1005C000A0E80C5048BF0CC05DF804EB890028BFC0
:1005D00040F8042B08BF704748BF20F8022B11F0E9
:1005E000804F18BF00F8012B704770477047704765
:1005F00010B500F0B9FA006810BD10B5044600F05F
:10060000B3FA046010BD2DE9F0470D4699469246B5
:10061000044600F124080168880604D5E06921F049
:100620001001216000E00120A84201DD471B00E02D
:100630000027A1697A1902EB0900081AA061207845
:10064000C00602D42046FFF737FE002608E0D4E9B2
:1006500001211AF806009047206A401C761C20628F
:100660004E45F4DB2078C0060AD52046FFF724FE6D
:1006700006E0D4E9012130209047206A401C206226
:10068000381EA7F10107F4DC07E0D4E9012118F8CE
:1006900005009047206A401C2062281EA5F1010534
:1006A000F3DC2046FFF71EFE2078000602D502206C
:1006B000BDE8F0870120FBE770472DE9FF4F0C46AE
:1006C0001E464FF0FF378BB0D2E90001DDF86080A5
:1006D0000A908A46C1F30A5505B93D4600210846ED
:1006E0004FF00000BAF1000F00F4400005DA00EB13
:1006F00080004FF4400101EA50004FEA9059B9F1EF
:10070000010F00DDB9460A9850EA4A000ED044F6BF
:100710001050A5F2FF3545432F14B8F1000F1ED03D
:100720007542291E1EDDC9F100021CE0B8F1010F5F
:100730004FF0000001D0302103E0F24305E02154E6
:10074000401CB042FBDB30460022002121540B99B3
:10075000C1F80880C1E900200FB0BDE8F08FBD1BD3
:100760006D1CDEE74A4600DA694206A800F086FA08
:1007700006AB93E8070003AB83E8070050460A99ED
:1007800000F065FB8DE80700A0F500501F380090D1
:100790000398002D09DD42F21F014A46084403A9CF
:1007A0000390684600F0C4FD08E0A0F500504A46FA
:1007B0001F3803A90390684600F0CEFD8DE80700BE
:1007C0000004000C03D04FF0FF30410800E0104659
:1007D000B8F1000F03D00022009215461EE0751EEE
:1007E00005D400F0C5F9303262556D1EF9D5B34617
:1007F0000122084302D000227F1C04E02078302828
:1008000001D100227F1E002A099786D01DE0112DFC
:1008100007DA00F0ADF9303262556D1C50EA010282
:10082000F5D1084302D00098C8B10EE00021681E3F
:1008300005E0235C625C63542254401E491C8142E3
:10084000F7DBAB46A81B401E0990002004F80B0004
:100850000B98099AC0F80880C0E9002B7CE71126A4
:100860004FF0000859E72DE9F04F88460446D21DA5
:1008700022F0070191B0D1E90001CDE90A0103F0AE
:10088000A7F802460B98C00F01D02D2007E0206882
:10089000810701D52B2002E0202101EAC000032AB4
:1008A000099001D0072A05DB03464146204600F0A7
:1008B000A5F90BE12078800601D5E06900E006206B
:1008C000B8F1650F814606D0B8F1660F18D0B8F1BF
:1008D000670F70D131E00020B9F1110F009001DBFA
:1008E000112301E009F101030AAA01A90CA8FFF7ED
:1008F000E4FEDDE90C70002609F10105834647E0BE
:1009000001204B4600904FF000470AAA01A90CA80D
:10091000FFF7D3FEDDE90DB00C995D46002610B956
:1009200009F101000D18B9EB050003D4C0F1FF3641
:1009300009F10105A5EB09002BE0B9F1010F01DA7E
:100940004FF001090020B9F1110F0090484601DD78
:10095000112300E003460AAA01A90CA8FFF7ADFE87
:10096000DDE90C704D4600268346207800070AD446
:10097000AB4500DA5D4601A8012D04DD411911F8EF
:10098000011C302907D04F4502DA17F1040F04DAB1
:10099000012082460FE06D1EEEE7002F02DCED1B0A
:1009A0003E4403E0781CA84200DD7D1CB81B00F12A
:1009B000010A4FF000472078000703D4AA4501DB65
:1009C0004FF0FF3A0021B7F1004F0DF143088DF8C9
:1009D000431024D002202B23002F01DA7F422D2345
:1009E0000A21021EA0F1010000DC5FB197FBF1FCBF
:1009F00097FBF1F201FB1C7C17460CF1300C08F858
:100A000001CDEEE7A8F1010003702188090501D5A9
:100A1000452100E06521A0F1010800F8011C0998BA
:100A20000FA9A1EB0807FF1D00B10120411901EB3F
:100A3000EA70A1693844081A401EA0612078C006F7
:100A400002D42046FFF738FC099828B1D4E90121E7
:100A50009047206A401C20622078C00622D520469C
:100A6000FFF72AFC1EE0002E04DBB34502DD01A8DF
:100A7000805D00E03020D4E901219047206A401CCD
:100A80002062761CAAF101005FEA000A0AD100F098
:100A900067F8C0680168405CD4E901219047206A8A
:100AA000401C2062281EA5F10105DCDC07E0D4E92A
:100AB000012118F8010B9047206A401C2062381E63
:100AC000A7F10107F3DC2046FFF70CFC032011B06F
:100AD00043E6000001694A1C02610878704700B5CE
:100AE0008FB0CDE901310021059105497944CDE967
:100AF000031011466846FFF76BFC0FB000BD000005
:100B0000E5FFFFFF0A6802F8010B0A60704710B5A5
:100B1000436913B1AFF3008001E0FFF7F4FB01205C
:100B200010BD127800F124010A7000224A700122DF
:100B3000EDE711684FF0FF32E9E70000074B70B5B1
:100B40000D467B44FFF7CBFF0446284600F004F92E
:100B500010B14FF0FF3070BD204670BDDF31000096
:100B600000487047A402002000487047840200201B
:100B700030B5B0F10A024FEA900E71F100034EEA6F
:100B8000817EB0EB0E0061EB91014FEA101E4EEA40
:100B9000017E10EB0E0041EB11114FEA102E4EEAD0
:100BA000016E10EB0E0041EB11214FEA104E4EEAA0
:100BB000014E10EB0E0041EB1141401841F10001D4
:100BC0004FEAD00040EA41704FEAD10110EB8005B6
:100BD0004FEA810444EA907444EB01046D1944EB3C
:100BE0000404521BA3414FF0000348BF0A3200D552
:100BF00030BD401C41F1000130BD00002DE9F04145
:100C00001F46044603260168072A01F4006004DB3E
:100C100008B116A505E016A503E008B115A500E08A
:100C200015A521F010002060A069C01EA0610FB1C1
:100C3000401EA0612046FFF73FFB4FB1D4E90121E0
:100C400038469047206A401C2062C01C206206E0A3
:100C5000206AFAE7D4E9012115F8010B9047761EC6
:100C6000F8D22046FFF73EFBBDE8F0814E414E0032
:100C70006E616E00494E4600696E66002DE9F047D0
:100C8000814616468AB0334878440DC88DE80D0079
:100C900030487844801C03AC0DC884E80D0041F650
:100CA0009B300844372190FBF1F290FBF1F5A5F160
:100CB000800501FB12041B3C02D56442012000E0C8
:100CC0000020DFF890A080460027FA44AAF1BE0A6F
:100CD0000DE0E00709D03246684607EB47010AEB12
:100CE000810100F039FB8DE8070064107F1C002CA7
:100CF000EFD1184F7F44AC3F18E0E80714D007EB62
:100D000004100DF1180A90E80E008AE80E00C06881
:100D1000F04201D198190890324606A903A800F0C4
:100D20001BFB03AB83E807006D10641C002DE4D1AE
:100D300032466946B8F1000F03A802D000F0F8FA75
:100D400001E000F009FBC9E90001C9F808200AB078
:100D5000BDE8F08724510000007B00F08000704760
:100D600000487047840200207546FFF7F9FFAE4641
:100D700005006946534620F00700854618B020B5A7
:100D8000FFF768FABDE820404FF000064FF000077B
:100D90004FF000084FF0000B21F00701AC46ACE823
:100DA000C009ACE8C009ACE8C009ACE8C0098D4690
:100DB00070470446AFF300802046FFF736FA000084
:100DC0004FF0013C50F8042B51F8043B9A4221D1DA
:100DD000A2EB0C03934313EACC1317D150F8042B66
:100DE00051F8043B9A4215D1A2EB0C03934313EA4A
:100DF000CC130BD150F8042B51F8043B9A4209D183
:100E0000A2EB0C03934313EACC13DBD04FF00000AA
:100E1000704700BFD01A01BAB1FA81F101F0180190
:100E200022FA01F0CB40C1F12001DBB2C0B2C01AFE
:100E30002CFA01F3D11A914311EAC311E6D170479C
:100E400001491820ABBEFEE72600020070475FEAAA
:100E5000400C08BF91F0000F4FEA8C234FEAC122EB
:100E600043EA51514FEA1C5018BF00F5F0404FEAD9
:100E7000300018BF41F000415FEA6C5C00F029804F
:100E8000BCF1FF3F08BF40F080407047130C06BF25
:100E900012044FF0100C4FF0000C130E04BF12029E
:100EA0000CF1080C130F04BF12010CF1040C930F8A
:100EB00004BF92000CF1020CD30F04BF52000CF1DE
:100EC000010C11464FF00002A0F11F00A0EB0C0036
:100ED000704711F0004F08BF704731F000413FF4F8
:100EE000D5AF0B0C06BF09044FF0100C4FF0000CEF
:100EF0000B0E04BF09020CF1080C0B0F04BF090113
:100F00000CF1040C8B0F04BF89000CF1020CCB0F09
:100F100004BF49000CF1010CCCF12003A0EB0C0044
:100F200022FA03F302FA0CF241EA030100F1010094
:100F3000704720F07F4C80EA030023F07F47ACEB42
:100F4000070303F57C5300F0004003F1FF032DE994
:100F500080494FEA154B09B44FEA144325EA0B4E7A
:100F600024EA03480FF2042606EB132749083E78CB
:100F70005FEA320203FB0667C7F5000707FB06F6C8
:100F80004FEA54374FEAD64606F1020607FB066CD5
:100F9000CCF1005C4FEA1C472CEA074C07FB06F437
:100FA0000CFB06F504EB15464FEA961634BF0020FD
:100FB0004FF000404FEAD13706FB07FC4FEA1C4CCC
:100FC0000CFB0BF7D21B03FB0CF761EB07010CFBCF
:100FD0000EF7B0EB074072EB17420CFB08F734BF7B
:100FE000A2EB0742B2EB074261EB17414FEA0C4418
:100FF0004FEA910706FB07FC4FEA1C4C0CFB0BF772
:10100000B0EBC74072EB573203FB0CF734BFA2EBD7
:10101000C742B2EBC74261EB57310CFB0EF7B0EBA6
:10102000C70072EB57720CFB08F734BFA2EBC70284
:10103000B2EBC70261EB5771039F4FEA816141EA4E
:10104000921104EBCC044FEAD1374FEA826206FBDF
:1010500007FC42EA90124FEA80604FEA1C4C0CFBFE
:101060000BF7D21B03FB0CF761EB07010CFB0EF730
:10107000B0EB074072EB17420CFB08F734BFA2EB52
:101080000742B2EB074261EB17414FEA8C554FEA3A
:10109000910704EB9C2406FB07FC4FEA1C4C0CFB5D
:1010A0000BF7B0EBC74072EB573203FB0CF734BFC2
:1010B000A2EBC742B2EBC74261EB57310CFB0EF714
:1010C000B0EBC70072EB57720CFB08F734BFA2EB12
:1010D000C702B2EBC70261EB577115EB4C254FEA23
:1010E000816141EA92114FEA82624FEAD13742EAC6
:1010F000901206FB07FC44F100044FEA80604FEABF
:101100001C4C0CFB0BF7D21B03FB0CF761EB07012C
:101110000CFB0EF7B0EB074072EB17420CFB08F725
:1011200034BFA2EB0742B2EB074261EB174115EB6C
:101130001C154FEA813141EA92414FEA823242EA7C
:1011400090424FEA80304FEA0C7644F1000448EABE
:1011500003434EEA0B484FF0000EB2EB080C71EB64
:10116000030724BF624639464EEB0E0E4FF0000BCC
:101170000018524149414BEB0B0BB2EB080C71EBE1
:1011800003077BF1000B24BF624639464EEB0E0E7F
:101190004FF0000B0018524149414BEB0B0BB2EBE7
:1011A000080C71EB03077BF1000B24BF6246394644
:1011B0004EEB0E0E51EA020718BF46F0010616EB81
:1011C0000E7655F1000254F1000103D5BDE8890106
:1011D000BDE80088BDE88901BDE80048B619524164
:1011E00041EB0101A3F10103704780807F7E7D7C8C
:1011F0007B7A7978777676757473727171706F6EA9
:101200006E6D6C6C6B6A6A69686867666665646453
:10121000636362616160605F5F5E5E5D5D5C5C5BDD
:101220005B5A5A595958585757565655555554544C
:10123000535352525251515050504F4F4F4E4E4DAA
:101240004D4D4C4C4C4B4B4B4A4A4A4949494848F6
:101250004847474747464646454545444444444336
:1012600043434342424242414141002B26D477004E
:1012700021D01CB54FEA370703B44FF010004FF0F0
:1012800010014FF000000FBCBDE810400BF1010B46
:10129000BBF1010F08BF5FEA170722BF12F101027D
:1012A00011F101014FF0004143F1000300F0004053
:1012B00043EA00007047F9D35708DAE746EA0646E2
:1012C00013F1400F4FEA16461FDD13F1200FDFBF69
:1012D00016430A46002120335B42C8D0C3F12007E1
:1012E00046EA064602FA07F74FEA164646EA0706B6
:1012F000C3F1200722FA03F201FA07F721FA03F1FA
:101300004FF0000342EA0702B1E746EA020646EA66
:1013100006464FEA164646EA0106BCBF46EA0646BE
:10132000360C4FF000034FF000024FF000019EE733
:101330002DE9C048934630B491E8380007C831EA37
:10134000400C48BF34EA430C03D5FFF7F2FDFFF72A
:101350008CFFF0BCBDE800882DE9C048934630B44E
:1013600091E8380007C810F0804F08BF13F0804F95
:1013700003D100F005F8FFF778FFF0BCBDE8008866
:1013800020F07F4780EA030023F07F4C07EB0C033B
:10139000A3F57C5300F00040A3F1FE0392F0000F90
:1013A00000F0B38095F0000F00F077802DE901493F
:1013B0004FEA11404FEA144621EA004800FB06FCC0
:1013C00024EA064708FB06F607FB08F800FB07F7C8
:1013D00018EB06484CEB164C4FEA124B18EB07483B
:1013E0004FEA15464CEB174022EA0B4E0BFB06FC6E
:1013F00025EA06470EFB06F607FB0EFE0BFB07F77A
:101400001EEB064E4CEB164C4FF000061EEB074E43
:101410004CEB174B18EB0B0840F1000018EB0E0BD0
:1014200058EB000840F100008F1A4FF000013CBF5C
:10143000C943661B14BFB5EB040C00213CBFC94374
:10144000F61B4FEA17444EEA8E0E27EA04454FEA90
:101450001C4704FB07622CEA074C05FB07F70CFB53
:1014600005F604FB0CFC16EB074642EB174216EBA5
:101470000C4642EB1C421BEB060658EB02024141B4
:1014800046EA9E0601D5BDE80189B619524141EBF5
:101490000101A3F10103BDE801894FEA14454FEAB8
:1014A000114724EA054621EA074C05FB07F406FB31
:1014B00007F70CFB06F105FB0CFC11EB074144EBB5
:1014C00017444FEA124711EB0C4144EB1C4422EA4B
:1014D000074C05FB07F206FB07F70CFB06F605FBBE
:1014E0000CFC16EB074642EB174216EB0C4642EBA0
:1014F0001C456A1854F1000148BF7047B6195241A3
:1015000041EB0101A3F10103704795F0000F37D0C3
:101510004FEA11424FEA144721EA024624EA074CF7
:1015200002FB07F106FB07F70CFB06F402FB0CFCC1
:1015300014EB074441EB17414FEA154714EB0C44F9
:1015400041EB1C4125EA074C02FB07F506FB07F7B8
:101550000CFB06F602FB0CFC16EB074645EB1745A9
:1015600016EB0C4645EB1C42121951F1000148BF25
:101570007047B619524141EB0101A3F101037047D5
:101580004FEA14454FEA114724EA054621EA074C81
:1015900005FB07F106FB07F70CFB06F24FF0000610
:1015A00005FB0CFC12EB074241EB174112EB0C421E
:1015B00051EB1C4148BF7047921841EB0101A3F168
:1015C00001037047B0F52F7F02DA4FF42F7105E069
:1015D00040F6FC01884200DD00E001460846014A71
:1015E000108070473C080040014619B17820044A39
:1015F000106002E07820024A1060014800687047DD
:101600004000002000BFFEE700B589B0012109209D
:1016100001F022FA18208DF8230001208DF8220015
:101620000002ADF8200008A91C4800F03CF8012198
:10163000042001F0F1F94720ADF804000020ADF8D6
:10164000060044F61F60ADF808000020ADF80A005F
:101650008DF80C0001A9124801F0C6FD6020ADF81C
:1016600010000120ADF812000020ADF81800002194
:101670000B4801F056FD04A9094801F05BFD082163
:10168000074801F0A7FD0121054801F085FB012174
:10169000034801F093FB09B000BD0000000C0140BD
:1016A0000008004070472DE9F04102460025002661
:1016B000002000230024002791F803C00CF00F0540
:1016C00091F803C00CF0100CBCF1000F03D091F89E
:1016D00002C04CEA050591F800C0BCF1000F31D002
:1016E000146800202BE04FF0010C0CFA00F3B1F865
:1016F00000C00CEA03069E4220D183004FF00F0C7D
:101700000CFA03F7BC4305FA03FC4CEA040491F815
:1017100003C0BCF1280F06D14FF0010C0CFA00FCFD
:10172000C2F814C00AE091F803C0BCF1480F05D11B
:101730004FF0010C0CFA00FCC2F810C0401C082845
:10174000D1D31460B1F800C0BCF1FF0F34DD546890
:1017500000202EE000F1080C4FF0010808FA0CF30D
:10176000B1F800C00CEA03069E4221D183004FF07D
:101770000F0C0CFA03F7BC4305FA03FC4CEA040413
:1017800091F803C0BCF1280F05D100F1080C08FA4C
:101790000CF8C2F8148091F803C0BCF1480F07D1CF
:1017A00000F1080C4FF0010808FA0CF8C2F810809C
:1017B000401C0828CED35460BDE8F08100BFFEE78E
:1017C00070B502460024002500230020958A138B63
:1017D0001B0445EA030626F07F4404EA01068E4214
:1017E00001D1012000E0002070BD21B1028842F04B
:1017F0000102028004E002884FF6FE731A40028064
:1018000070472DE9F0470746884616461D46089C56
:101810004FF00009012300224146384600F020F82D
:1018200081463146384600F025F901231A464146E3
:10183000384600F015F80BE02DB9384600F052F9A3
:1018400004F8010B04E0384600F02AF904F8010B13
:101850002800A5F10101CDB2EED14846BDE8F087E0
:101860002DE9F04104460D4616461F46208840F4F7
:101870008070208044F620602449086009E02348F5
:101880000068401E2149086018B94FF0FF30BDE8DC
:10189000F081A08A00F001000028F0D01FB120885C
:1018A00040F480602080AEB925F00100208244F62B
:1018B00020601649086008E014480068401E13497B
:1018C000086010B94FF0FF30E1E7A08A00F0020095
:1018D0000028F1D0012E16D145F00100208244F6F7
:1018E00020600A49086008E008480068401E07496F
:1018F000086010B94FF0FF30C9E705492046FFF7EF
:101900005FFF0028F0D0208B0020C0E744000020BB
:10191000020003002DE9F04106460F4614461D461D
:1019200000231A4639463046FFF79AFF21463046D3
:1019300000F0A0F82946304600F09CF8304600F050
:1019400003F84046BDE8F081014644F620600D4AA8
:10195000106007E00B480068401E0A4A106008B992
:1019600001207047888A00F080000028F2D0888A21
:1019700000F004000028EDD0088840F400700880D2
:101980000020EEE7440000202DE9F04385B0044636
:101990000D460026B1460427DFF8CC80A6884FF616
:1019A000C0700640684601F077F8DDF808802F48DF
:1019B000B8FBF0F01FFA80F946EA0906A6802088F5
:1019C0004FF6FE7108402080002629492868884289
:1019D0000CD828684000B8FBF0F087B2042F00DA7A
:1019E00004273E4309F10100208427E0E8884BF6F4
:1019F000FF71884206D1286800EB4000B8FBF0F088
:101A000087B209E0286800EBC00101EB0010B8FBC9
:101A1000F0F087B247F48047C7F30B0008B947F0EE
:101A2000010747F4004006434FF4967009FB00F0AD
:101A30004FF47A7190FBF1F0401C2084A68320883B
:101A400040F00100208026884FF6F5300640A88837
:101A50006989084306432680A8892989084320818B
:101A600005B0BDE8F083000000127A0040420F008C
:101A7000A086010044F62062084B1A6004E0074A81
:101A80001268521E054B1A60828A02F080021AB94F
:101A9000024A1268002AF2D10182704744000020F5
:101AA00070B50446208840F48060208044F62060B1
:101AB0000A49086007E009480068401E07490860B5
:101AC00008B9012070BD06492046FFF779FE0028BD
:101AD000F1D0208AC5B22846F4E700004400002077
:101AE0004000030070B50446208820F48060208008
:101AF000208840F40070208044F620600A49086085
:101B000007E009480068401E0749086008B901203D
:101B100070BD06492046FFF753FE0028F1D0208A09
:101B2000C5B22846F4E7000044000020400003004E
:101B300030B585B004460D460121082000F08CFF29
:101B40002248844211D10121480500F065FFC020E0
:101B5000ADF8100003208DF812001C208DF8130042
:101B600004A91B48FFF79FFD14E01A48844211D1D5
:101B70000121880500F050FF4FF44060ADF81000DF
:101B800003208DF812001C208DF8130004A91048C2
:101B9000FFF789FD00950020ADF804004BF6FF70BB
:101BA000ADF806000020ADF80800ADF80A004FF4CB
:101BB0008040ADF80C0069462046FFF7E5FE0121A4
:101BC0002046FFF712FE05B030BD00000054004073
:101BD000000C01400058004010B54FF47A7002F03C
:101BE0009BF8C82002F098F810BD000010B5154908
:101BF0001548FFF79DFF642002F08EF880216B20CE
:101C000000F088FA7D2002F087F801216B2000F0B7
:101C100081FA08211B2000F07DFA00211C2000F031
:101C200079FA05211A2000F075FA0921192000F02F
:101C300071FA0021382000F06DFA01216B2000F0CC
:101C400069FA10BDA0860100005800402DE9F04F50
:101C5000B5B00025002002904FF4FA7002F05CF855
:101C600058E041A0FEF708FB00240EE000F0BCF9AC
:101C70004548008903A921F814004348B0F9080039
:101C80000544192002F048F8641C642CEEDB642043
:101C900095FBF0F54FF0000800240DE003A931F9A1
:101CA0001410491B01FB01F003F000FE06464146FB
:101CB00003F076FC8046641C642CEFDB404603F0A6
:101CC00043FC324A324BCDE9000103F06FF9814603
:101CD00002F012FE064602F0A9FE804629462DA01B
:101CE000FEF7CAFA404603F02FFC064632460B4682
:101CF0002CA0FEF7C1FA404603F026FC064600225F
:101D00002C4B03F017F902D20120029002E02AA026
:101D1000FEF7B2FA02980028A3D0284603F0C6FDC9
:101D20002A4908601849B1F9040003F0BFFD1649BB
:101D30000190B1F9020003F0B9FD0090019901F0A2
:101D40007DFE834603F000FC0646214A214B03F04A
:101D50002DF9814602F06AFE1F4908601FA0FEF7B8
:101D60008BFA35B0BDE8F08F4779726F2063616CF4
:101D70006962726174696F6E2E2E2E20444F4E542C
:101D8000204D4F5645210000640100207B14AE47D2
:101D9000E17A843F6F66667365743A20256C640D42
:101DA000000000007374646465763A2025660D0AAD
:101DB00000000000000049405265706561742C20ED
:101DC000444F4E54204D4F56452100002C0000201A
:101DD000E3A9471ADCA54C403400002043616C693C
:101DE0006272617465204F4B210000002DE9F14FB4
:101DF00084B05A49B1F9040003F058FD82465749AE
:101E0000B1F9020003F052FD8346514601F016FE7F
:101E1000814603F099FB0746514A524B03F0C6F83E
:101E2000054602F003FE504908604C49B1F908002C
:101E300003F03CFD82464D480168504603F08AFE9F
:101E4000814603F081FB07460022494B02F0D4FE95
:101E5000054602F0EBFD474908604348006803F07F
:101E600073FB0746444A454B03F0A0F805460E466F
:101E700040480168049803F065FD019040480168FE
:101E8000019803F08DFB834603F05EFB07463D4A55
:101E90003D4B03F08BF82A463346CDE9020102F0B0
:101EA000F7FD814602F0C2FD3549086037492F48E9
:101EB000006803F04FFE06462849B1F9080003F018
:101EC000F5FC0746314603F009FD05D22F492748A6
:101ED000006803F03FFE1AE02C492448006803F034
:101EE0005FFB06461D49B1F9080003F0DFFC074619
:101EF000314603F0F3FD05D224491C48006803F085
:101F00004FFB04E01549B1F9080003F0CFFC05468A
:101F100003F0B0FC04B2204602F0F5FF07461C4A6D
:101F20001C4B03F043F8CDE902011048006803F0B0
:101F30000BFB0746184A194B03F038F88146DDE9D8
:101F4000022302F0A5FD054602F070FD0749086076
:101F50000B48006805B0BDE8F08F00006401002068
:101F6000E3A9471ADCA54C40300000202C000020DB
:101F700000605040280000207B14AE47E17A843F87
:101F800034000020AE47E17A14AEEF3F000020415C
:101F9000FCA9F1D24D62403F96438B6CE7FBEF3FCB
:101FA00038B5012269463A2000F00AF804469DF847
:101FB000000000F0010008B1012038BD0020FCE75E
:101FC000F8B504460D46164633462246D02105484C
:101FD0000095FFF716FC074617B16FF00900F8BD32
:101FE0000020FCE70058004010B50E2237493B2086
:101FF000FFF7E6FF044634B135A0FEF73DF9214670
:1020000037A0FEF739F931480078364908702F4873
:1020100040782E4908703348007848700846807828
:10202000304908702948C078284988702D480078C0
:10203000C870084600792B49087024484079234924
:102040000871284800784871084680792549087049
:102050001E48C0791D49887122480078C871084619
:10206000007A204908701948407A184908721D48BA
:10207000007848720846807A1A4908701348C07A76
:102080001249887217480078C8720846007B1549C3
:1020900008700E48407B0D49087312480078487359
:1020A0000846B0F90430B0F90220B0F900100EA0D3
:1020B000FEF7E2F80548B0F90A30B0F90A20B0F9A5
:1020C00008100FA0FEF7D8F810BD00006401002032
:1020D0004D505536303530204572726F723A0000DF
:1020E0002575000024000020414343454C3A20253B
:1020F000642C2025642C202564200D0A000000009B
:102100004759524F3A2025642C2025642C20256401
:10211000200D0A0070B504460D46E2B22B46D021D0
:102120000248FFF7F7FB304670BD00000058004042
:1021300000BFFEE77047000070B5002100230F22AA
:10214000C47804B3154C246804F4E064C4F5E06476
:10215000210AC1F10403CA40447804FA03F18478E7
:102160001440214309010E4C0678A155047804F06F
:102170001F050124AC4005786D11AD0005F1E02587
:10218000C5F8004109E0047804F01F050124AC40C3
:10219000044D0678761145F8264070BD0CED00E040
:1021A00000E400E080E100E02DE9F04786B000BFE8
:1021B0004022FE49FE4801F07CFA00287ED0FB490F
:1021C000FCA0FEF759F8F94800782F2877D1F74896
:1021D00080782F28FAD1F5484078312803D0F34889
:1021E00040783228F2D1F6480078002868D1EF48CC
:1021F00040783038F34908700120F1490870002018
:10220000F1490870EE480078012865D1E748C07AA6
:10221000E0B9E6484079642818D1E4488079652817
:1022200014D1E248C079722810D10220E449087024
:102230000120E6490870DD48007A3038E44908702A
:1022400008460178E3A0FEF717F845E0D748007983
:10225000752818D1D5484079732814D1D34880798E
:10226000682810D10220D64908700120D74908708B
:10227000CE48C0791D38D649087008460178D5A0E7
:10228000FDF7FAFF28E0C948807967281CD1C748C4
:10229000C0796C2818D1C548007A652814D102206D
:1022A000C74908700120C9490870C048407A1338EE
:1022B000C749087008460178C6A002E037E313E179
:1022C000A4E0FDF7D9FF07E04021B848FEF744F944
:1022D0000020BB4908706BE7B9480078022885D117
:1022E000B8480078012807D1B9480078022803DCF3
:1022F0000120B549087004E00020B3490870B049D6
:1023000008700020AE4908700120B4490870AD483B
:10231000007802287AD0AE480078012806D002283A
:102320002ED0032856D0042871D171E09F48007B3D
:102330002C2803D1132000F03BFB8246504603F0CB
:1023400003F904460022A64B02F0F4FD0BD8A54881
:10235000C0F800A0504603F0F7F8044622460B46AA
:10236000A1A0FDF789FF9848007840B100215046B0
:1023700003F04CFA03D14FF07C509A490860B2E068
:102380008A48007B2C2803D1132000F011FB8246E1
:10239000504603F0D9F804460022914B02F0CAFDE2
:1023A0000BD89048C0F804A0504603F0CDF804467E
:1023B00022460B468CA0FDF75FFF8348007840B1B2
:1023C0000021504603F022FA03D14FF07C5085499A
:1023D000486088E07548007B2C2816D1504603F0F1
:1023E000B3F8044600227E4B02F0A4FD0DD8132062
:1023F00000F0DEFA7B498860504603F0A5F80446F9
:1024000022460B4678A0FDF737FF6CE074E01BE036
:102410006648407B2C2816D1504603F095F80446B8
:1024200000226F4B02F086FD0DD8132000F0C0FA99
:102430006C49C860504603F087F8044622460B46B4
:1024400069A0FDF719FF4EE05848407B2C2815D1B4
:10245000504603F079F804460022614B02F06AFD11
:102460000CD8132000F0A4FA8246504603F06CF812
:10247000044622460B465CA0FDF7FEFE5448007859
:10248000142815DB52480078192811DA002150462B
:1024900003F0BCF906D100214D4800781438544AA5
:1024A000115405E001214A4800781438504A11546B
:1024B000474800781E2815DB45480078232811DAA4
:1024C0000021504603F0A2F906D1002140480078CF
:1024D0001E38484A115405E001213D4800781E3855
:1024E000444A115400BF07E040213048FEF734F859
:1024F0000020334908705BE638480078012853D142
:102500000020364908702F48007801284DD13A48FC
:10251000007858B14FF07C50324908604860002084
:1025200034490870354908703349087034480078D8
:10253000B0B1012033490870002031490870324899
:1025400000683249B1F90010084431490860314847
:1025500000683149B1F90010084430490860CBE007
:102560000020284908702E48006802F0EDFFCDE9F0
:1025700004011C49086802F0E7FF80460022294B4D
:1025800002F0F8FE0646DDE9042302F00FFD0446E2
:1025900002F08AFC00B2244908801249486802F01F
:1025A000D3FF0646002241E0CFE0CAE072010020DE
:1025B000004400405544503A2025730D0A000000A5
:1025C00038000020F00000203C0000203A000020ED
:1025D0003B000020543A2025640D0A00F100002041
:1025E0000000F03FB4010020563A2025660D0A0095
:1025F00004010020080100208D000020C5000020FB
:102600000C010020C4000020CC000020100100209C
:10261000D4000020D000002012010020D8000020AB
:10262000B00000200000E03FA8000020C64B02F0F0
:10263000A1FE044602F0FAF9C44908600021C3482B
:10264000006803F04BFA29D2C148006802F07CFF11
:10265000CDE90401BD48006802F076FF064600227D
:10266000B94B02F0A3FCCDE90001B848016800684D
:1026700003F068F9064602F067FF0446DDE900232F
:1026800002F006FACDE90201DDE9042302F08EFC36
:10269000804602F0CBF9AD4908602DE0AC480068F7
:1026A00002F052FF04460D46A848006802F04CFFB5
:1026B00080460022A44B02F079FCCDE90201A34838
:1026C000006880F00049A1480168484603F03AF9E3
:1026D000804602F039FFCDE90001DDE9022302F076
:1026E000D7F9064622462B4602F060FCCDE90401EC
:1026F00002F09CF9954908609648007870B99648B0
:10270000007858B195489649086096489049086005
:1027100095489649086001208E4908708D480078D8
:1027200001280ED18C48007858B991488C4908602E
:1027300090488749086090488C4908600020854986
:10274000087000208D49087008E08C480078022845
:1027500004D101F031FF00208849087088480078D2
:1027600001287DD10020864908708448007801281E
:1027700077D18448007858B14FF07C508249086086
:102780004860002074490870724908707D490870DB
:102790007E480078B0B101207D49087000207B4957
:1027A00008707C4800687C49B1F9001008447B49F6
:1027B00008607B4800687B49B1F9001008447A49F9
:1027C00008608CE00020724908706548006802F0DB
:1027D000BBFE06460F466C49086802F0B5FE0022B3
:1027E000594BCDE9040102F0C5FD804632463B4617
:1027F00002F0DCFB044602F057FB00B26B49088094
:102800006149486802F0A0FE064600224E4B02F0E5
:10281000B1FD044602F00AF94C49086000214B481A
:10282000006803F05BF92DD24948006802F08CFE85
:1028300004460D464548006802F086FE0646002222
:10284000414B02F0B3FBCDE902014048016800684A
:1028500003F078F8064602F077FECDE9000101E0CA
:1028600066E061E0DDE9022302F012F922462B4620
:10287000CDE9040102F09AFB804602F0D7F8334913
:1028800008602CE03248006802F05EFECDE90201EB
:102890002E48006802F058FE064600222A4B02F03D
:1028A00085FBCDE900012948006880F000472748F2
:1028B0000168384603F046F8064602F045FE8046B9
:1028C000DDE9002302F0E4F80446DDE9022302F02A
:1028D0006DFBCDE9040102F0A9F81C4908601D4810
:1028E000007870B91C48007858B11C481C49086031
:1028F0001C48174908601C481C49086001201549FC
:1029000008701448007801280ED11348007858B98F
:1029100017481349086017480D49086016481349BD
:10292000086000200B49087000201449087008E076
:1029300012480078022804D101F03EFE00200F4921
:10294000087006B0BDE8F0870000E03FAC00002052
:10295000B4000020C500002008010020000043440E
:10296000B0000020000082430000D041B8000020E9
:102970000080094400000C4300006041F00000208A
:10298000F10000208D000020B40100200C01002087
:10299000C4000020CC00002010010020D400002042
:1029A000D000002012010020D8000020A800002044
:1029B00008B501460948405C8DF80000481E074AEA
:1029C000105C8DF80100881E105C8DF80200C81E96
:1029D000105C8DF80300009808BD00007201002013
:1029E000002008490870084908700849087008491B
:1029F00008704FF07C500749086048608860C860E4
:102A00007047000038000020390000203A00002004
:102A10003B000020B401002029B1064AD2690243DC
:102A2000044BDA6104E0034AD2698243014BDA6164
:102A3000704700000010024029B1064A12690243A3
:102A4000044B1A6104E0034A12698243014B1A6184
:102A5000704700000010024029B1064A9269024303
:102A6000044B9A6104E0034A92698243014B9A61E4
:102A7000704700000010024029B1064AD2680243A4
:102A8000044BDA6004E0034AD2688243014BDA6007
:102A9000704700000010024030B5002100220024E1
:102AA00000232D4D6D6805F00C0121B1042905D0DE
:102AB000082923D105E0294D056022E0274D056056
:102AC0001FE0254D6D6805F47012234D6D6805F407
:102AD0008034022505EB92421CB9214D5543056017
:102AE0000BE01D4D6D6805F400351DB11C4D5543BF
:102AF000056002E0194D5543056002E0174D056081
:102B000000BF00BF144D6D6805F0F0010909154DB7
:102B10006B5C0568DD4045600F4D6D6805F4E06154
:102B2000090A104D6B5C4568DD4085600A4D6D6893
:102B300005F46051C90A0B4D6B5C4568DD40C5600A
:102B4000054D6D6805F44041890B074D6B5CC56808
:102B5000B5FBF3F5056130BD0010024000127A00AC
:102B600000093D00500100206001002010B500F078
:102B700001F810BD0CB500200190009033480068AA
:102B800040F480303149086000BF3048006800F4EC
:102B9000003000900198401C0190009818B90198ED
:102BA000B0F5A06FF1D12948006800F4003010B1F1
:102BB0000120009001E0002000900098012843D1FE
:102BC0002348006840F0100021490860084600686A
:102BD00020F0030008600846006840F0020008602A
:102BE0001A484068194948600846406848600846E5
:102BF000406840F4806048600846406820F47C10DB
:102C000048600846406840F4E8104860084600689C
:102C100040F08070086000BF0C48006800F0007051
:102C20000028F9D00948406820F0030007494860AF
:102C30000846406840F00200486000BF0348406812
:102C400000F00C000828F9D10CBD00000010024073
:102C50000020024005480068401C04490860044800
:102C60000068401C024908607047000018010020FD
:102C70002001002010B51348006840F00100114900
:102C8000086008464068104908400E4948600846F8
:102C900000680E4908400B4908600846006820F4A7
:102CA000802008600846406820F4FE0048604FF429
:102CB0001F008860FFF75AFF4FF00060044908606A
:102CC00010BD0000001002400000FFF8FFFFF6FEFC
:102CD00008ED00E010B50421080700F07BF801289A
:102CE00020D100204FF0804188840F480078A8B19F
:102CF00001200E4908600C4890F90000002805DD0D
:102D00000B480068401E0A49086004E00848006853
:102D1000401C074908600020044908600421080796
:102D200000F049F810BD0000E400002094012142A9
:102D3000CC00002010B50221134800F04BF8012808
:102D400020D1002010492431088010480078A8B113
:102D500001200F4908600D4890F90000002805DDAA
:102D60000C480068401E0B49086004E009480068F0
:102D7000401C0849086000200549086002210248FB
:102D800000F019F810BD000000040040E50000202C
:102D900084012142D000002021B1028842F080024B
:102DA000028004E002884FF67F731A400280704769
:102DB000CA4302827047CA430282704721B1028827
:102DC00042F00102028004E002884FF6FE731A40CE
:102DD0000280704730B50246002000230024158A87
:102DE00005EA0103958905EA010413B10CB101203C
:102DF00000E0002030BD1AB183890B43838102E0DB
:102E000083898B438381704700B589B001211C20E1
:102E1000FFF722FE6220ADF8000010208DF80300BD
:102E200003208DF8020069465848FEF73CFC4FF439
:102E30000050ADF8000010208DF8030003208DF83D
:102E4000020069465248FEF72EFC01210320FFF7DD
:102E5000E3FD2320ADF818004FF6FE70ADF81C001E
:102E60000020ADF81A00ADF81E008DF8200006A96C
:102E70004FF0804000F0B8F906A9464800F0B4F9D8
:102E800000214FF08040FFF787FF00214148FFF706
:102E900083FF0020ADF80800ADF80A004FF6FF7080
:102EA000ADF80E000020ADF810000021394800F008
:102EB00079F80021374800F0CBF802A9354800F036
:102EC0007BF8002034490870324924310880ADF87D
:102ED0000800ADF80A004FF6FF70ADF80E000020B4
:102EE000ADF8100000214FF0804000F05BF80021A9
:102EF0004FF0804000F008F902A94FF0804000F048
:102F0000B1F80020254908704FF0804188840122E3
:102F100004210807FFF76FFF012202211D48FFF778
:102F20006AFF02211B48FFF743FF04210807FFF750
:102F30003FFF1C208DF8040000208DF805008DF85F
:102F4000060001208DF8070001A8FFF7F5F81D2005
:102F50008DF8040000208DF805008DF80600012092
:102F60008DF8070001A8FFF7E7F8C82000F094FEED
:102F700000200B49086001210648FFF71FFF0121CF
:102F80008807FFF71BFF09B000BD000000080140E3
:102F90000010014000040040E4000020E500002093
:102FA000B40122420A460021018B4FF6FB731940FF
:102FB000114301837047000070B5002400220023F4
:102FC000058C4FF6FE7635400584028C8388048B91
:102FD0004FF68F752C40B51E2C400D882C43751E66
:102FE0002A400D892A434D882A43144DA8420BD00C
:102FF000134DA84208D0134DA84205D0124DA84247
:1030000002D0124DA84213D14FF6F7752A404D89D0
:103010002A434FF6FB752A408D882A434FF6FF65F9
:103020002B404FF6FF552B408D892B43CD892B43E9
:1030300083800483CD888586028470BD002C014086
:10304000003401400040014000440140004801407C
:103050000A460021018B4FF6F77319401143018393
:103060007047000070B5002400220023058C4FF645
:10307000EF7635400584028C8388048B48F6FF7513
:103080002C404FF6FF452C400D884FF6FF7606EAA0
:1030900005252C434FF6DF752A400D8906EA0515F4
:1030A0002A434D8806EA05152A43154DA84202D049
:1030B000144DA8421DD14FF67F752A404D894FF619
:1030C000FF7606EA05152A434FF6BF752A408D881C
:1030D00006EA05152A434FF6FF352B404FF2FF75E0
:1030E0002B408D8906EA85052B43CD8906EA8505A7
:1030F0002B4383800483CD880587028470BD000044
:10310000002C0140003401400A460021018B4FF29F
:10311000FF7319404FF6FF7303EA0223194301833B
:1031200070470A460021818B4FF6FB73194011430B
:103130008183704770B5002400220023058C4FF670
:10314000FF6635400584028C8388848B4FF68F752B
:103150002C404FF6FC752C400D882C434FF6FF5544
:103160002A400D894FF6FF7606EA05252A434D8849
:1031700006EA05252A43154DA84202D0144DA8425F
:103180001DD14FF2FF752A404D894FF6FF7606EAB2
:1031900005252A434FF6FF352A408D8806EA052586
:1031A0002A434EF6FF752B404DF6FF752B408D8957
:1031B00006EA05152B43CD8906EA05152B438380C6
:1031C0008483CD888587028470BD0000002C014077
:1031D000003401400A460021818B4FF6F7731940F5
:1031E0001143818370470000002202881D4B9842E2
:1031F0000ED01D4B98420BD0B0F1804F08D01B4B26
:10320000984205D01A4B984202D01A4B984204D1EA
:103210004FF68F731A404B881A43174B984207D0CA
:10322000164B984204D04FF6FF431A40CB881A43FE
:1032300002808B8883850B8803850A4B98420BD0CC
:10324000094B984208D00E4B984205D00D4B98423E
:1032500002D00D4B984201D10B7A03860123838261
:1032600070470000002C0140003401400004004081
:1032700000080040000C0040001000400014004016
:1032800000400140004401400048014010B540F2B8
:103290002551064800F0C8F930B10448001D0088E7
:1032A000C1B2034800F05CFA10BD000000380140D4
:1032B0002801002010B50446E4B901210520FFF7DC
:1032C000CBFB01218803FFF7C7FB4FF400701849BF
:1032D00008801820C870032088701648FEF7E3F9AC
:1032E0004FF48060124908800420C8701148FEF72E
:1032F000DAF91BE0012C19D101210820FFF7ACFB02
:1033000001218803FFF7A8FB402009490880182005
:10331000C870032088700848FEF7C5F9802004496A
:1033200008800420C8700448FEF7BDF910BD0000F5
:103330004C01002000080140000C014010B540F293
:103340002551064800F070F930B10448001D00888E
:10335000C1B2034800F004FA10BD00000044004070
:103360003401002010B5044601214804FFF754FB46
:10337000022C1AD101210420FFF76EFB0121480421
:10338000FFF74AFB0420174908801820C870032063
:1033900088701548FEF787F9082012490880042034
:1033A000C8701148FEF77FF91BE0032C19D10121E9
:1033B0002020FFF751FB01214804FFF72DFB2020BF
:1033C000084908801820C870032088700748FEF755
:1033D0006AF94020034908800420C8700348FEF7BA
:1033E00062F910BD4C0100200008014000140140AA
:1033F00010B540F22551064800F016F930B10448E6
:10340000001D0088C1B2034800F0AAF910BD0000F9
:10341000004800404001002010B504460121880406
:10342000FFF7FAFA042C1AD101210820FFF714FB48
:1034300001218804FFF710FB20022849088018208A
:10344000C870032088702648FEF72DF960022349D2
:1034500008800420C8702248FEF725F93CE0052CBE
:103460001CD101211020FFF7F7FA01218804FFF792
:10347000F3FA4FF48060194908801820C8700320BF
:1034800088701848FEF70FF94FF400601349088060
:103490000420C8701348FEF706F91DE0062C1BD166
:1034A00001212020FFF7D8FA01218804FFF7D4FA80
:1034B0004FF48070094908801820C8700320887074
:1034C0000948FEF7F0F84FF4007004490880042022
:1034D000C8700548FEF7E7F810BD00004C01002059
:1034E000000C0140001001400014014010B50346DB
:1034F000184600F01BF90446E08808B9012010BD09
:103500000020FCE710B50446204600F00FF9034602
:10351000D8889988884201D1012010BD0020FCE79D
:1035200021B1828942F40052828104E082894DF601
:10353000FF731A408281704710B5044620488442C8
:1035400009D101218803FFF797FA00214FF4804049
:10355000FFF792FA32E01B48844209D10121480466
:10356000FFF76AFA00214FF40030FFF765FA25E013
:103570001548844209D101218804FFF75DFA002132
:103580004FF48020FFF758FA18E01048844209D120
:103590000121C804FFF750FA00214FF40020FFF783
:1035A0004BFA0BE00A48844208D101210805FFF7D5
:1035B00043FA00214FF48010FFF73EFA10BD0000DF
:1035C000003801400044004000480040004C0040EA
:1035D0000050004073B50646304600F0A7F8034699
:1035E000DD885C890FE09888A04200D1002418682B
:1035F00000579DF80410884201D101207CBD601C59
:1036000084B2681E85B2002DEDDC0020F6E702468C
:103610000020B1F5007F00D100BF13880B400BB133
:10362000012000E00020704770B50246002400230E
:103630000025002040F66A16B14200D100BFC1F358
:10364000421501F01F03012606FA03F3012D02D1F2
:103650009689334006E0022D02D1168A334001E0FC
:10366000968A33400C12012606FA04F41688344078
:1036700013B10CB1012000E0002070BD30B504464C
:103680000025204600F052F80346D88800280EDDB9
:1036900058899988884201D1002058815989186831
:1036A00045565889401C5881D888401ED880E8B2B9
:1036B00030BDF0B507460D46164600243846FFF7E4
:1036C00015FF40B90A213846FFF784FF28B938466C
:1036D000FFF718FF08B90020F0BD0BE03846FFF7F0
:1036E000CDFF2855285D0A2802D1601C84B204E071
:1036F000601C84B2701EA042F0DC00BF0020285580
:103700002046E9E70146064A914200D10020054AD9
:10371000914200D10120044A914200D10220704719
:103720000038014000440040004800400146064A7D
:10373000914200D10548064A914200D10548064A07
:10374000914200D10548704700380140280100200F
:1037500000440040340100200048004040010020A7
:1037600010B5C28883889A420FDA028983889A4208
:1037700001D1002202814AB2048903681A550289E4
:10378000521C0281C288521CC28010BDF0B5034693
:10379000002400260025002040F66A17B94200D117
:1037A00000BF1846C1F3421401F01F06012707FAB3
:1037B00006F5012C01D10C3004E0022C01D11030AF
:1037C00000E014301AB107682F43076002E0076871
:1037D000AF430760F0BD00002DE9F04786B0054615
:1037E0000E460024A24600BFA1460027B08900B1C2
:1037F00000BF2F462C8A4CF6FF700440F08804432B
:103800002C82AC894EF6F3100440B088318908430D
:10381000718908430443AC81AC8A4FF6FF400440F1
:10382000B0890443AC8201A8FFF736F91F488742EC
:1038300002D1DDF810A001E0DDF80CA0A88900F4A9
:10384000004040B10AEBCA0000EB0A1031684900A1
:10385000B0FBF1F807E00AEBCA0000EB0A10316890
:103860008900B0FBF1F86420B8FBF0F004012009F6
:10387000642101FB1089A88900F4004040B1322086
:1038800000EBC900B0FBF1F000F00700044308E0D2
:10389000322000EB09106421B0FBF1F000F00F00C2
:1038A00004432C8106B0BDE8F087000000380140D9
:1038B00013B5044600BF80212046FFF7A8FE00286C
:1038C000F9D09DF80400A0801CBD70B505460C46DB
:1038D00004E014F8011B2846FFF7EAFF20780028CF
:1038E000F7D170BD70B586B004460D4616460296F7
:1038F0003348844212D12846FFF7DCFC25208DF89E
:1039000004000020ADF814000C20ADF812000020D7
:10391000ADF81000ADF80E00ADF80C002948844257
:1039200012D12846FFF71EFD26208DF80400002046
:10393000ADF814000C20ADF812000020ADF8100016
:10394000ADF80E00ADF80C001F48844212D1284695
:10395000FFF762FD27208DF804000020ADF8140069
:103960000C20ADF812000020ADF81000ADF80E00EC
:10397000ADF80C0000212046FFF7D2FD2046FFF7EE
:10398000DBFD02A92046FFF727FF01212046FFF7B4
:10399000C7FD012240F225512046FFF7F7FE012026
:1039A0008DF8070000208DF805002046FFF7AAFEDD
:1039B0008DF8060001A8FEF7BFFB06B070BD000041
:1039C00000380140004400400048004000BFFEE7CE
:1039D000490050EAC12018BF04204A0D18BF40F02A
:1039E000010040F2FF72B2EB515F08BF40F00200ED
:1039F000012808BF052070474100080218BF0420B5
:103A00000A0E18BF40F001004FF07F4232EA010178
:103A100008BF40F00200012808BF0520704701F0F0
:103A2000BFBD6FF05E01080702F03DB930380A28CB
:103A300001D2012070470020704700002DE9F047B7
:103A40004FF0684202EB40030C460546B3F1654F68
:103A50003CBF02EB4102B2F1654F7CD2C0F3C753C9
:103A6000C1F3C7529A1A1B2A06DD10F0004F14BF8B
:103A700076487748BDE8F08712F11A0F17DA11F08F
:103A8000004F06D010F0004F0CBF72487248BDE8DE
:103A9000F0872146284601F0F7FD0446FFF7ACFF0A
:103AA000042808BFFFF7BDFF2046BDE8F0874200AD
:103AB000B2EB410F25D910F0004F19BF674F684E88
:103AC000684F694E224685F0004415460A4680F04C
:103AD000004110460A1A5200B2F1807F40D248409D
:103AE0006249DFF88CA110F0004F18D04FF03F482A
:103AF000384602F02FF807465146304602F02AF8C1
:103B000017E011F0004F04BF00263746E2D010F056
:103B1000004F19BF574F584E584F594EDAE74FF0E4
:103B20007C58384601F03CFD07465146304601F0CE
:103B300037FD06464146284601F004FF214601F0C4
:103B40002FFD82462146404601F0FCFE294601F049
:103B5000F6FF514600E037E001F096FD044604E030
:103B60002146284601F090FD0446014601F0EAFE98
:103B70008046444901F0E6FE434901F011FD41460B
:103B800001F0E0FE414901F00BFD414601F0DAFE93
:103B90003F4901F005FD414601F0D4FE3D4901F0E9
:103BA000FFFC05464146204601F0CCFE294601F0C7
:103BB000C9FE314601F0F4FC214601F0F1FC394622
:103BC000BDE8F04701F0ECBC4FF07F42B2EB400F94
:103BD00028BFB2EB410F03D2BDE8F047FFF71FBF8C
:103BE00040EA01035B0008BF44F0FF410AD0B2EB9A
:103BF000400F08BFB2EB410F06D125F0804024F002
:103C0000804105460C4629E7B2EB400F12BF5FEA40
:103C1000410245F0FF4004F000413FF41FAF4A006D
:103C200092EA40033FF51AAF002AACBF4FF09F461F
:103C30004FF03E56314601F085FE0546314620469E
:103C400001F080FE04462846214607E7DB0FC9BF86
:103C5000DB0FC93FDB0F4940DB0F49C00000C9BF84
:103C600022AAFDB90000C93F22AAFD390060ED3E3D
:103C7000C30ACE37000049C022AA7DBA00004940DD
:103C800022AA7D3A2DAD65BD8FB8D53D0FB511BEC9
:103C900061C84C3EA8AAAABE70B5044600F042FC1A
:103CA000051901E000F0AAFE00F03CFCA842F9D39F
:103CB00070BD000030B514480068144AB0FBF2F142
:103CC000B1F1807F00D31DE021F07F40401E4FF016
:103CD000E022506150170F22002807DA13071D0E4B
:103CE0000B4B00F00F04241F1D5503E013071C0E9F
:103CF000084B1C5400BF00204FF0E02290610720C9
:103D0000106100BF30BD00001000002040420F00D5
:103D100018ED00E000E400E010B504462046FFF78F
:103D2000BBFF10BD70B504460D46E1B20248FFF777
:103D3000BFFD204670BD00000038014088B0FFF78D
:103D4000B9FF4FF4E1320021FB48FFF7CBFD4FF400
:103D5000E1320221F948FFF7C5FDF9A0FCF78CFA22
:103D6000FA480168FAA0FCF787FAFEF739FEFBA0D3
:103D7000FCF782FA4FF47A70FFF78EFFFDF736FFFB
:103D80004FF4FA70FFF7C8FFFDF726FFF6A0FCF727
:103D900073FAF7A0FCF770FAFCA0FCF76DFAFDF7D8
:103DA00055FFFEA0FCF768FAFDF72EFC40F2DC5050
:103DB000FDF708FCFFF728F800241DE0052000F0BF
:103DC00091FC052000F0E8FC40F20460FDF7FAFBEE
:103DD000C820FFF7A1FF6FF0040000F083FC6FF034
:103DE000040000F0D9FC40F2B450FDF7EBFBC82012
:103DF000FFF792FF601CC4B2052CDFDB40F2DC5001
:103E0000FDF7E0FBE8A0FCF737FA00F085FBE94995
:103E1000086038E3FEF7C8F900F07EFBE649086069
:103E2000FEF7BEF800287DD0FEF7DEF8E348007804
:103E3000401CE2490870E2480078401CE0490870E4
:103E4000DD490968DB4A1268881A01F05CF8074608
:103E5000DC4ADD4B01F0AAF8054600F0E7FDDB493E
:103E60000860D5480068D3490860D9480068D94936
:103E70000860D6480068FDF7B9FF0790D64801688A
:103E8000079801F08DFBD2490860D449079801F0EA
:103E900025FE22D2D249079801F020FD1DD20798B5
:103EA00001F052FB0546CF4ACF4B01F07FF8CDE938
:103EB0000401CE48006801F047FB0546CC4ACD4BD3
:103EC00001F074F8CDE90201DDE9042300F0E0FD22
:103ED000074600F0ABFDC5490860C749B1F90010BD
:103EE000C64AB2F90020881800EBD071491009B217
:103EF000C34A1180B7480168B548006801F02AFE3E
:103F0000834601F021FB05460022BE4B01F04EF82E
:103F1000074600F0C9FF0FFA80F9B948008840420F
:103F2000484400E05CE20FFA80FA504601F0BEFC23
:103F3000834601F009FB0546B34AB44B01F036F85D
:103F4000CDE90401B248006801F0FEFA0546B14A25
:103F5000B14B01F02BF8CDE90201DDE9042300F0BB
:103F600097FD074600F062FDA9490860AB4800785C
:103F7000002868D0A048B0F900000090A848036865
:103F8000A8480268A8480168A848006800F0D4FA68
:103F9000054601F06FFC00B2A54908809748B0F9CA
:103FA000000000909E4803689E480268A14801688E
:103FB000A148006800F0C0FA054601F05BFC00B2C1
:103FC0009E4908809A49B1F900109C4AB2F9002034
:103FD000881800EBD071491009B2994A1180104637
:103FE000B0F9000010F1BE0F02DA6FF0BD0009E079
:103FF0009348B0F90000BE2801DDBE2002E09048E1
:10400000B0F900008E4908808C49B1F90010884A47
:10401000B2F90020881A01F049FC8A4908608A49EF
:104020008848006801F05AFC01D2874809E08749B6
:104030008448006801F052FD01D2844801E08148C3
:104040000068804908607248006801F013FC05B2FE
:104050007F48006800907F4803687948B0F90020E5
:1040600029465A48006800F0F5FB7B4908607B4808
:10407000006880F0004508460168284601F02EFDE2
:1040800004D27648006880F000400BE07348016875
:104090007148006801F022FD02D27048006801E01A
:1040A0006D4800686C4908606D48006800906D4874
:1040B000036808460268464801684448006800F002
:1040C00041FC054668480168284601F069FA6649DE
:1040D000086066496448006801F000FC01D263484A
:1040E00009E063496048006801F0F8FC01D26048CB
:1040F00001E05D4800685C490860524801685A4820
:10410000006801F04DFA054601F0B4FB00B25949D0
:1041100008804C4801685448006801F01BFD0546C2
:1041200001F0A8FB00B2544908805248B0F90000E1
:1041300010F5FA7FA2E00000003801400044004082
:104140005553415254204F4B0D0A000010000020DF
:10415000636C6F636B3A2025640D0A004F53435F15
:104160004F4B0D0A00000000524F424F54200000F8
:10417000446F6E2774206D6F766520666F722031F4
:1041800030207365632E2E2E00000000444F4E2712
:1041900054204D4F5645210D0000000057696669B7
:1041A000204F6B210D0A000053746172742E2E2E65
:1041B000000000000000002004000020510000204A
:1041C000520000208DEDB5A0F7C6B03E08000020DB
:1041D000580000205C000020C0000020000070C1DA
:1041E000000070417B14AE47E17A843F60000020FC
:1041F000AE47E17A14AEEF3FE0000020E20000207D
:10420000E6000020000039409A9999999999B93FA0
:10421000EC000020CDCCCCCCCCCCEC3FC4000020BA
:104220008800002084000020D4000020CC00002062
:10423000DC000020D8000020D0000020DE0000209C
:10424000A8000020AC000020000048C20000484246
:10425000700000206C000020A4000020B8000020A6
:104260006800002064000020BC0000200000FAC3A9
:104270000000FA43C6000020C800002001DA82488E
:104280000BE08248B0F90000B0F5FA7F02DD4FF490
:10429000FA7002E07D48B0F900007C4908807C4853
:1042A000B0F9000010F5FA7F01DA77480BE07848A2
:1042B000B0F90000B0F5FA7F02DD4FF4FA7002E0C9
:1042C0007348B0F90000724908807248007808B15C
:1042D000522400E04A24204601F0E8FA05466E48E0
:1042E0000168284601F0FAFB17D2604201F0DEFABD
:1042F000054669480168284601F0F0FA0DD2002011
:10430000664908606148B0F9000000F0EBF96048C8
:10431000B0F9000000F040FA22E001205F49086097
:10432000002000F0DFF9002000F036FA00205C49A0
:1043300008605C485C4908605C485D490860002092
:104340005C4908605C4908605C4908605C49086039
:104350005C4908705C4908705C4908805C490860E9
:104360004C48007878B15B494B48006801F0B6FBD7
:1043700004D24FF42F70FDF725F908E040F6FC0059
:10438000FDF720F903E040F2DC50FDF71BF952493C
:104390004148006801F0A2FA16D250493E48006830
:1043A00001F09CFB10D24E4800683F4908604D4820
:1043B00000683F4908604C4800683E4908604B4827
:1043C00000683D4908600AE03648374908603748C8
:1043D000374908600020374908603749086000BF46
:1043E000434800780F2830DB0020414908704149DC
:1043F0002948006801F0A6FA054601F03BFA10F5DD
:10440000617F01DA3C4815E03A492348006801F031
:1044100099FA054601F02EFAB0F5617F02DD4FF4FE
:10442000617007E033491C48006801F08BFA0546CB
:1044300001F020FA0446224630A101A8FBF728FF2C
:1044400001A93148FFF741FA1DE03048007864289F
:1044500019DB00202D490870FDF7C6F82C49B1F989
:104460000010441804EBD470401000B228490880B2
:1044700028480078401C274908700846007803281F
:1044800001DB00200870C5E40CFEFFFFC600002021
:10449000C80000200401002058000020B40122427E
:1044A00094000020CDCCCC3D640000200AD7233EF0
:1044B000680000206C00002070000020CC0000206C
:1044C000D0000020C40000200C010020A800002023
:1044D000AC00002000001CC200006042000060C26E
:1044E00074000020780000207C0000208000002064
:1044F00051000020000020417CFCFFFF2474412C6F
:10450000252B3034640D0A00004400405200002086
:10451000540000205300002001480068704700004C
:1045200020010020034800684FF47A71B0FBF1F0DD
:1045300070470000180100202DE9F84F04460D4691
:1045400016461F46DDF82890281B01F0AFF93146CA
:10455000009001F0F7F98346154901F0BFF901D247
:10456000134814E0281B01F0A1F93146009001F036
:10457000E9F983460F4901F0B1FA01D20D4806E08E
:10458000281B01F093F98346314601F0DBF982469E
:10459000484601F08BF93946009001F0D3F9834683
:1045A000514600F0FDFF80464046BDE8F88F000010
:1045B0000000E6C20000E6422DE9F04136480078EE
:1045C00080B9002006E04FF07C51344A42F82010B8
:1045D000411CC8B20428F6DB0020314908700120D4
:1045E0002D4908702D49086800F0AEFF06462D4A97
:1045F0002D4B00F0DBFC044600F018FA2B49086054
:104600002649486800F0A0FF0646294A294B00F0D9
:10461000CDFC044600F00AFA274908601F49886863
:1046200000F092FF06461F4A244B00F0BFFC0446F0
:1046300000F0FCF9224908601849C86800F084FFBE
:1046400006461B4A1F4B00F0B1FC044600F0EEF991
:104650001D4908601D488078012803D11C48006866
:104660001C49086011E000201B490860FFF75AFF51
:104670001A490860002000F035F8002000F08CF89E
:10468000012017490860FDF78FFD054800780128D3
:10469000E9D0BDE8F08100008D000020B4010020C9
:1046A000080100207B14AE47E17AE43F740000204B
:1046B0009A9999999999B93F78000020E17AC43F75
:1046C0007C0000209999C93F80000020040100204F
:1046D00060000020C00000209400002000000020A6
:1046E000B401224210B50246274BB3F900309B1AA1
:1046F0000E2B06DD244B1B880E3B1BB2224C238065
:104700000FE0214BB3F900309B1A13F10E0F06DABC
:104710001D4B1B880E331BB21B4C238001E01A4B30
:104720001A80194B1B883224634319B229B94FF6FA
:10473000FF700023154C237014E0002908DD144B92
:1047400093FBF1F00123114C2370124C236009E01C
:104750004B420F4C94FBF3F0FF230C4C23700023CF
:104760000C4C2360B0F5803F01DB4FF6FF704FF03B
:104770008044208723469B8C248FA34203DD0023A3
:104780004FF08044A38410BDE0000020E40000202E
:1047900080841E009801214210B50246284BB3F9CF
:1047A00000309B1A0E2B06DD254B1B880E3B1BB2DF
:1047B000234C23800FE0224BB3F900309B1A13F1F6
:1047C0000E0F06DA1E4B1B880E331BB21C4C2380C7
:1047D00001E01B4B1A801A4B1B883224634319B229
:1047E00029B94FF6FF700023164C237015E00029FD
:1047F00009DD154B93FBF1F00123124C23700023CC
:10480000124C236009E04B420F4C94FBF3F0FF2362
:104810000C4C237001230D4C2360B0F5803F01DB6D
:104820004FF6FF700A4C2080094B103B1B882488F0
:10483000A34203DD0023064C103C238010BD000082
:10484000E2000020E500002080841E00900121424B
:10485000340400402DE9F84F05460E4617469846A9
:10486000B81B04B214F11E0F02DA6FF01D0104E050
:104870001E2C01DD1E2100E02146084601F016F83D
:1048800082461A480168504600F08AFE17490860BF
:1048900017491648006801F021F801D2144809E0D0
:1048A00014491248006801F019F901D2114801E0D9
:1048B0000E4800680D490860084601680A9801F032
:1048C00041F82946009001F03DF88246204600F06C
:1048D000EDFF4146009001F035F88346514600F067
:1048E0005FFE81464846BDE8F88F00009400002036
:1048F00000401CC600401C462DE9F04106460F460C
:1049000000F052FC04000D4618BF0120284320F09F
:104910000040C0F17F6000F1E040C00F0ED0301CBD
:1049200018BF0120384320F00040C0F17F6000F143
:10493000E040C00F04BF0120FBF75FFE2046294680
:10494000BDE8F0812DE9F04F87B006460C461546CC
:104950001F46DDF840802146284601F0FBF806900E
:1049600024480168284601F0F5F883464FF041419C
:1049700000F0B4FF02D24FF0414012E01D48016840
:10498000284601F0E7F883464FF0824101F0A6F88F
:1049900002D24FF0824004E016480168284601F038
:1049A000D9F8824614480168204601F0D3F8414600
:1049B000019000F0C7FF83465146404600F0C2FF19
:1049C0005946029001F0C6F83146039000F05CFEB3
:1049D00005903846069900F0B5FF0490059900F05F
:1049E000DFFD81460448046002480560484607B080
:1049F000BDE8F08FA0000020980000207047000064
:104A000010B500290AD00878002807D00548784456
:104A1000FCF7D6F9002801D0002010BD02487844E8
:104A200010BD0000DA130000D213000021F0004294
:104A3000A2F16052B2F5801F01F0004328BFD2F10D
:104A40007F6C0BD95FEA001C43EAC20242EB507054
:104A500018BF704728BF20F001007047B2F5801FD3
:104A6000BCBF184670474FEA410C1CF5001F02D22C
:104A7000084601F02EB870B500F042FB0000008936
:104A8000FFF7F6BF4FF00040A0F580007047000030
:104A900010B591EA030F48BF83F0004300F1728420
:104AA000841A71EB030C05D2121943EB0C03001BA3
:104AB00061EB0C01DFF824E14FEA1154A4EB135C25
:104AC0001EEA430F18BF9EEA445F73D023EA0E0329
:104AD000DCF1200E21EA045143F4801332D322FA90
:104AE0000CFE10EB0E0023FA0CFE41EB0E01CCF194
:104AF000200E03FA0EFE10EB0E0051F10001B1F58D
:104B0000801FCCF1200E32D201EB045112FA0EF2CA
:104B1000BDE8104058BF7047401C38BF5FEA4202F2
:104B200018BF7047002814BF20F0010041F10001B8
:104B30004FEA410313F5001F38BF7047A1F1C04190
:104B400000F02CBB012A43EB0302ACF1200CDCF19A
:104B50001F0E32BF4FF0000E23FA0CF310EB0300D0
:104B600041EB0451B4EB115FD0D0A1EB045101F53E
:104B7000801149085FEA300001EB04510ED350F177
:104B8000000038BF12FA0EFE08D1BDE81040C9E798
:104B9000401C38BF5FEA4202CAD1C3E7BDE81040FB
:104BA0004FEA410313F5001F38BF7047A1F1C04120
:104BB00000F0F4BA9EEA445F08D011EA5E0FBDE847
:104BC000104004BF01F0004100207047BDE81040D4
:104BD00070B500F095FA00BF64FBBE3E0000E0FF38
:104BE000491058BFC1F140415B1058BFC3F1404369
:104BF0008B42EFF3008070472DE9C04130B4DFF8FD
:104C0000A0C23CEA111418BF3CEA131400F0EC8077
:104C100081EA03051CEA111444EAD57418BF1CEAA2
:104C2000131500F0C780A4EB05044FF0004545EADA
:104C3000C12145EAC32341EA505143EA525304F1EA
:104C40007F74994204F500344FEAC0204FEAC22233
:104C500008BF904200F09C804FEA13650FF24016A7
:104C6000765D4FEA134506FB05F7C7F1807706FB33
:104C700007F74FEAD737A7FB03687642C8F58038B5
:104C8000A7FB06CE38BFA8F1010807FB08E64FF0E6
:104C9000000EA6FB028CE6FB03CEDCF1000CCEF18D
:104CA000004E38BFAEF1010EA6FB0C584FF00007C6
:104CB0004FF00005E6FB0E87A1FB08C6A0FB07CE60
:104CC00016EB0E0645F10005E1FB076515F1E04E18
:104CD0007EBFA4F580345FEA46066D4116F1800779
:104CE00045F100054FEA17274FEA066647EA0567D0
:104CF000A6F1DE46B6F1805F4FEA15251FD938468A
:104D000024F0010C05EBC471BCF1FE6F01EB0C113A
:104D100002D8F0BCBDE8008124425CBF01F5801ED2
:104D20009EEAC47F02D4F0BCBDE80081244238D49E
:104D3000F0BCA1F1C041BDE8004100F02FBA4FEA3C
:104D4000D22242EA43524FEAD323A7FB02864FEA1C
:104D5000D02040EA415007FB03661EEA0E0F4FEADF
:104D6000D12105FB026658BFA6EB0056B6EB0056F4
:104D70004FEA520E4EEAC37E18EB0E0E56EB530E60
:104D8000BDD518EB02085E417F1C55F10005B6E762
:104D90004FF480154FF000074FF000064FF0000869
:104DA000ADE7F0BC4FF0000001F1C04101F000415F
:104DB000BDE8008111EA0C1F0CEA131500D00CE0CD
:104DC00013EA0C1F00F025804FF00000F0BC81EAD0
:104DD000030101F00041BDE80081F0BCBDE80041E5
:104DE00081EA030100F0DAB9F0BCBDE8004170B51A
:104DF00000F086F9097EFC3E00F007B881EA030165
:104E00004FF0000001F00041704781EA030100F01B
:104E1000C5B9F0BCBDE800414FF000002149704722
:104E2000FFFDFBF9F7F5F4F2F0EEEDEBE9E8E6E46F
:104E3000E3E1E0DEDDDBDAD8D7D5D4D3D1D0CFCDF6
:104E4000CCCBCAC8C7C6C5C4C2C1C0BFBEBDBCBB2F
:104E5000BAB9B8B7B6B5B4B3B2B1B0AFAEADACAB2A
:104E6000AAA9A8A8A7A6A5A4A3A3A2A1A09F9F9E04
:104E70009D9C9C9B9A9999989797969595949393B6
:104E8000929191908F8F8E8E8D8C8C8B8B8A89894D
:104E900088888787868585848483838282818180D0
:104EA0000000FF070000F87F4FEA41034FEA535329
:104EB000A3F58063D3F11E03C8BFD3F1210C0CDD31
:104EC0004FF0004242EAC12242EA505232FA03FC59
:104ED0008CEAE17CACEBE1707047102BC4BF002082
:104EE000704703F5787CBCF1FF3F04D06FF00042BF
:104EF00082EA2100704770B500F002F949922480DF
:104F000000207047F2E710F0004248BF4042B0FA7C
:104F100080F310FA03F10AD0C3F11D0303F5806397
:104F20004FEA415002EB035202EBD12170474FF0A0
:104F30000000704751EA030C17D41CF5801F58BFBE
:104F4000BCF5801F00F10680994218BF704708BF6A
:104F50009042704707D711F5801F58BF13F5801F87
:104F600019D499427047894270471CF5801F08D5B3
:104F7000BCF5801FF7D58B4218BF704708BF82422F
:104F800070474FF4001C1CEB410F38BF1CEB430F64
:104F900001D28B42704770B500F0B2F892244900FC
:104FA0004FF000514FF08053FFF71ABEDFF848C1B1
:104FB00070B51CEA111E1EBF1CEA13159EEA0C0FE9
:104FC00095EA0C0F00F06F8081EA030423EA4C138A
:104FD0004EEAD47E21EA4C1141F4801143F480134F
:104FE000AE44A1FB024CA0FB0365AEF17F7E3619F7
:104FF00055EB0C05A1FB034C4CF10003A0FB021C7C
:1050000016EB0C06654153F10003094218BF46F048
:10501000010613F4007F0BD14FEA03314FEA05304C
:10502000340341EA155140EA16506FF003020AE0DA
:105030004FEAC3214FEAC520F40241EA555140EA44
:1050400056506FF0020202EB2E4201EB025585EA48
:10505000CE710AD05FEA440C18BF24F0004450F12E
:10506000000041F1000120EAD47040F2FE7C62456C
:1050700000D270BDA84214BF4FF080444FF04044AE
:10508000002E08BF0024BEF1806FA8BFA1F1C0416F
:10509000BDE8704080F282804FF0000001F1C04115
:1050A00001F0004170479EEA0C0F0CEA131518BF7F
:1050B00095EA0C0F06D04FF0000081EA030E0EF0C7
:1050C000004170BD00F01CF88900013E00F007B8F7
:1050D00000F009B84FEA430C5FEA5C5C08D081EA53
:1050E000030100F05BB84FEA410C5FEA5C5CF6D16B
:1050F0004FF00000014970470000FF070000F87FF3
:105100000EF1020E2EF0030E5EF8046B364205D44B
:10511000012A43EB030515F5001F12D8012841EBC6
:10512000010C1CF5001F0CD80ED14FEAD17C15F5EF
:10513000001F0CEB4C0C0CF1020C08BF4CEBD37CA9
:1051400004E04FF0080C01E04FEAD37C0CEB4C0577
:1051500026FA05F606F00706B6F1040C06D20EEBA9
:10516000860CBDE870404CF0010C6047DFE80CF0A5
:10517000090B02024FF000414FF00000A1F50021A1
:1051800070BD19461046012851EB010418BFD4F533
:10519000001484BF002001F0004170BD0808A0F594
:1051A00000114FEA310170472DE9F04101F5801CF3
:1051B000BCF5001FC0F2C3804FEA115C21EA0C511C
:1051C0000CF1FD0C41F480115FEA5C0C0CF5C07C25
:1051D00001D3400049413DA4890241EA9051870230
:1051E0008E0E0A0CA45D04FB04F602FB06F6C6F163
:1051F0004046A4FB0662F60D46EA422606FB06F48C
:10520000A4FB01235242C3F1404338BF5B1EA6FBFF
:1052100002420024E6FB0324D20B42EA4446A6FBEA
:105220000623A1FB02E2A3FB07E4A4184FF000024F
:1052300052F10002E3FB01426442C2F1404E38BF2A
:10524000AEF1010EA6FB04234FF00002E6FB0E3286
:10525000A2FB03464FF00004B61954F10004E2FB30
:105260000264A1FB06E6A4FB07E816EB08064FF074
:10527000000858F10008E4FB01687642C8F1405884
:1052800038BFA8F10108A2FB06E4A3FB08E52D192D
:105290004FF0000454F10004E2FB0854A1FB05E6C2
:1052A000A7FB04E818EB06084FF0000656F10006CD
:1052B000E1FB048618F1200556F10006A809A8F1C3
:1052C0001B08B10908F03F08B8F10A0F40EA8660F0
:1052D0001CD901EB0C51BDE8F08100BFFCF5EEE8F4
:1052E000E2DDD8D3CFCBC7C3C0BDB9B6B4B1AEAC85
:1052F000A9A7A5A3A19F9D9B9A9896959392908FFD
:105300008D8C8B898887868584838281A0FB006849
:1053100000FB01F208EB4208B8EB872807D53418E8
:1053200058EB0104D5D5401C51F10001D1E7341AE6
:1053300078EB0104CDD4401E71F10001C9E75FEAAA
:105340004C0C5FEA9C5C0DD105D34FF0000001F0DE
:105350000041BDE8F081BDE8F04170B5FFF7D0FE37
:105360006DDBFFBEBDE8F0414FF000000049704723
:105370000000F87F10B591EA030F48BF83F00043A7
:105380003FF58EAB841A71EB030C07D212198CF027
:10539000004C43EB0C03001B61EB0C01DFF8A4E1B4
:1053A0004FEA1154A4EB135C1EEA430F18BF9EEAA8
:1053B000445F00F0B08023EA6E03524221EA0451B8
:1053C000C3EB6E0338BF5B1EDCF1200E25D322FA3F
:1053D0000CFE10EB0E0043FA0CFE41EB0E01CCF17B
:1053E000200E03FA0EFE10EB0E0051F10001CCF17D
:1053F000200E29D412FA0EF201EB0451BDE8104040
:1054000058BF7047401C1CBFB2F1004F70470028C6
:105410000CBF491C20F00100704712EB020E43EB59
:10542000030218BF4FF0010E4EEA4202ACF1200C0D
:10543000DCF11E0E54D943FA0CFE10EB0E0051F1B4
:10544000FF31CCF11E0ED5D50EF1010E12FA0EFE73
:10545000404141EB010101EB445C5FEA5C5C10D927
:1054600010EBDE7001EB045138BFBEF1004FBDE818
:10547000104018BF704700280CBF491C20F00100E5
:10548000704730D24FEAD42C11F5001124F4006497
:105490001BD0B1FA81F20B3AA41AA41ED2F1200358
:1054A000914030FA03F31943904001EBCC71002C8A
:1054B00001EB0451BDE81040A8BF704701F1C041A5
:1054C0004FF0000001F000417047B0FA80F310FA8D
:1054D00003F100D110BDE41A173C4805C90AE4E7FE
:1054E00001EB045110BD491001EB0451BDE810401F
:1054F0004FEA300002E04FF0000170474A0008BF59
:105500000042F8D0B2F5001F28BF704701F00041FB
:105510004FF0000070479EEA445F07D011EA5E0F2B
:10552000BDE8104004BF002100207047BDE81040D6
:1055300070B5FFF7E5FD00BF40DFF63E83F00041A8
:10554000104670470000E0FF43004FEAD30C4FEADB
:105550003C0C43401FBF40070CF1605113F0FE4F5D
:1055600070471CF0006F03D100200CF00041704721
:105570000CF0004343EA507010B540EACC0000F054
:1055800062FA00BF000000924FEA0001FFF706BE7A
:105590004FF000414FF00000A1F5002170470000DE
:1055A00090EA010F48BF81F0004100F1DA82421A0F
:1055B0003CBF801A89184FEAD0524FF07F4C1CEA4A
:1055C000410FA2EBD15318BF9CEA026F00F03B8061
:1055D0004FF0004C4CEA00204CEA012121FA03FC78
:1055E00010EB0C0C1ED202F1FF325FEA1C2040EBE4
:1055F000C25038BF70471CF07F0F4FEA400C18BFF5
:10560000BCF17F4F38BF7047C3F12003994008BFFA
:1056100020F00100BCF17F4F38BF7047A0F1C040BF
:1056200000F057BA4FEA3C00000A40EBC25028BFD6
:105630001CF0FF0F4FEA400CE6D018BFBCF17F4FC3
:1056400038BF7047EAE79CEA026F05D010EA5C0FAA
:1056500008BF00F00040704710B500F0F4F900BF3B
:1056600064FBBE3E014800F0ECBA00BF0000C07F02
:10567000401058BFC0F14040491058BFC1F14041EF
:105680008142EFF3008070474FF47F0C1CEAD01288
:105690001EBF1CEAD11392EA0C0F93EA0C0F00F024
:1056A000858090EA010F48BF42F4807240F4000CFC
:1056B00041F400002CF07F4120F07F4000B5814292
:1056C000A2EB03020FF2081CACEB504EC0F100003D
:1056D0009EF800E04FEA4E0E00FB0EFC38BF49007A
:1056E0004FEA2C1C02F5FA020CFB0EF34FEACE1E19
:1056F0004FEA112C4FEAC1210EEB635E42EB2242CE
:105700000EFB0CFC4FEA1C5300FB03114FEA112C5B
:105710004FEA01310EFB0CFC4FEADC4C00FB0C1194
:10572000C14228BF09184CEB03335DF804EB10EBC2
:10573000410143EBC250B2F57C0F38BF704729D509
:1057400012F0F00F1CBF00F1C04000F000407047A5
:10575000008182838485868788898B8C8D8E8F914A
:105760009293959697999A9C9D9FA0A2A3A5A7A86E
:10577000AAACAEB0B2B3B5B7B9BCBEC0C2C5C7C99A
:10578000CCCED1D4D7D9DCDFE2E6E9ECF0F3F7FAFE
:10579000FE0000004FEA400C0CF1807CBCF17E4F13
:1057A00028BF7047B0F1C04000F093B990EA010FF4
:1057B0000CEAD11348BF42F48072624538BF63459A
:1057C00007D213F47F0F16D080EA010000F00040EA
:1057D000704710B500F037F9097EFC3E00F005B8BF
:1057E00080EA010000F00040704780EA010000F00C
:1057F000004000F06EB912F47F0F04BF02487047FA
:1058000080EA010000F065B90000C07F50EA010C99
:1058100000F113801CF5000F58BFBCF5000F01D438
:105820008842704707D710F5000F58BF11F5000FD9
:1058300015D488427047894270471CF5000F04D583
:10584000BCF5000FF7D5814270474FF0807C1CEB10
:10585000400F38BF1CEB410F01D28142704710B599
:1058600000F0F1F8922449004FF000504FF08051C1
:10587000FFF7FEBE41000B0ED3F19E0208D950F493
:1058800000034FEA032323FA02F048BF4042704767
:1058900010B500F0D8F800BF49922480002070476E
:1058A0006FF0004282EA20007047000010F00041D3
:1058B00048BF4042B0FA80F310FA03F2C3F19D03EF
:1058C0000BD051EAC35101EB1220530638BF704789
:1058D00000F1010008BF20F00100704750EA010C00
:1058E00000F113801CF5000F58BFBCF5000F01D468
:1058F0008842704707D710F5000F58BF11F5000F09
:1059000015D488427047894270471CF5000F04D5B2
:10591000BCF5000FF7D5814270474FF0807C1CEB3F
:10592000400F38BF1CEB410F01D28142704710B5C8
:1059300000F089F8922449004FF000504FF0805158
:10594000FFF796BE4FF47F0C1CEAD0121EBF1CEA74
:10595000D11392EA0C0F93EA0C0F00F0478090EA03
:10596000010F48BF42F480724FF0004C4CEA002017
:105970004CEA012102EB0302A0FB0113A2F5000295
:10598000002918BF43F001035B0028BF4FEA33032F
:1059900042EB22425FEA132C4CEBC2502EBFBCEB11
:1059A000436FB2F57C0F70474FEA036CBCF1004FB8
:1059B00008BF20F00100B2F57C0F38BF70470BD54F
:1059C00082F0FF0212F5803FC8BF704700F1C0406F
:1059D000D8BF00F00040704700F5000C5FEA4C0CA7
:1059E00048BF7047B0F1C04000F073B890EA010FB3
:1059F0000CEAD11348BF42F48072624538BF634558
:105A000004D280EA010000F00040704710B500F0B9
:105A10001AF800BF8900013E00F007B800F009B88D
:105A20005FEA410C5FEA1C6C08D080EA010000F0DC
:105A300050B85FEA400C5FEA1C6CF6D14FF00040B2
:105A4000A0F5800070470EF1020E2EF0030E5EF8F6
:105A5000044B244204D44FEA4102B2F17F4F11D8E3
:105A60004FEA4003B3F17F4F0CD80ED14FEAD07C00
:105A7000B2F17F4F0CEB4C0C0CF1020C08BF4CEB5D
:105A8000D17C04E04FF0080C01E04FEAD17C0CEB34
:105A90004C0324FA03F404F00704B4F1040C06D216
:105AA0000EEB840CBDE810404CF0010C6047DFE8C1
:105AB0000CF0070802024FF00040A0F5800010BD76
:105AC0000846420018BFD2F1807288BF00F0004043
:105AD00010BDFF2141EAD050C005704751EA000CCB
